:020000040800F2
:100000006004002045010008691000081D10000868
:1000100065100008D10100087D10000800000000F4
:100020000000000000000000000000007110000847
:10003000D5010008000000006D10000875100008D0
:100040005F0100085F0100085F0100085F01000810
:100050005F0100085F0100085F0100085F01000800
:100060005F0100085F0100085F0100085F010008F0
:100070005F0100085F0100085F0100085F010008E0
:100080005F0100085F0100085F0100085F010008D0
:100090005F0100085F0100085F0100085F010008C0
:1000A0005F0100085F0100085F0100085F010008B0
:1000B0005F0100085F0100085F0100085F010008A0
:1000C0005F0100085F0100085F0100085F01000890
:1000D0005F0100085F0100085F0100085F01000880
:1000E000D90100085F0100085F0100085F010008F6
:1000F0005F0100085F0100085F0100085F01000860
:100100005F0100085F0100085F0100085F0100084F
:100110005F0100085F0100085F0100085F0100083F
:100120005F0100085F0100085F0100085F0100082F
:10013000DFF80CD000F02EF800480047B51000089A
:10014000600400200648804706480047FEE7FEE7B7
:10015000FEE7FEE7FEE7FEE7FEE7FEE7FEE7FEE777
:10016000791000083101000830B50B460146002027
:100170002022012409E021FA02F59D4205D303FA69
:1001800002F5491B04FA02F52844151EA2F10102EA
:10019000F1DC30BD1CB509480090094801900546C6
:1001A000009C06E0E06840F0010394E807009847EF
:1001B0001034AC42F6D3FFF7BFFF00000414000870
:1001C0002414000840F21001C2F2000108607047D8
:1001D000FEE70000704700004FF4806000F0B8B800
:1001E000B0B5044600F0C2F9054640F20400C2F280
:1001F00000000078611C18BF044400BF00F0B6F98D
:10020000401BA042FAD3B0BDB0F5806F18BF704755
:1002100010B54AA001F0CEF841F60044C4F2010442
:1002200020464FF4807100F093F920464FF400719E
:1002300000F08EF94FF47A70FFF7D2FF20464FF4AA
:10024000807100F085F920464FF4007100F080F9CC
:100250004FF47A70FFF7C4FF20464FF4807100F02E
:1002600077F920464FF4007100F072F94FF47A707C
:10027000FFF7B6FF20464FF4807100F069F9204681
:100280004FF4007100F064F94FF47A70FFF7A8FFA3
:1002900020464FF4807100F05BF920464FF4007166
:1002A00000F056F94FF47A70FFF79AFF20464FF4AA
:1002B000807100F04DF920464FF4007100F048F9CC
:1002C0004FF47A70FFF78CFF20464FF4807100F0F6
:1002D0003FF920464FF4007100F03AF94FF47A707C
:1002E000FFF77EFF20464FF4807100F031F9204681
:1002F0004FF4007100F02CF94FF47A70FFF770FFA3
:1003000020464FF4807100F023F920464FF400712D
:1003100000F01EF94FF47A70FFF762FF20464FF4A9
:10032000807100F015F920464FF4007100F010F9CB
:100330004FF47A70BDE81040FFF752BFE4B8ADE665
:1003400096ADE4BAA7E7949FEFBC81EFBC810000B3
:1003500040F21441C4F201010A68024214BF08606D
:100360007047FFF751BF00002DE9F04F82B00E68D3
:10037000002E00F0E980A0F1804241F6004540F2F5
:100380000043A2F58432C4F201050624C4F201033D
:100390004FEAB227A84208BF05244FF0000E4FF0E5
:1003A00001080F254FF0000A4FF0000B052F38BF52
:1003B0004FEAB224009408E00E680AF1010A36FA06
:1003C0000AF20EF1040E00F0BF8008FA0AFC16EAE9
:1003D0000C09F1D04E684FF6FF72C1F2100296423E
:1003E00012DC122E56D8DFE806F0350B4D49555574
:1003F000555555555555555555555545510000BF01
:10040000D1F80CB046E000BF4FF6FF72C1F22102F6
:1004100096420FDC0022C1F2110296421AD000224D
:10042000C1F21202964215D00022C1F22102964278
:1004300010D02FE00022C1F2220296420AD0002200
:10044000C1F23102964205D00022C1F23202964238
:1004500020D100BF8A684AB1012A14BFC0F814C075
:10046000C0F810C04FF0080B14E000BF4FF0040BB1
:1004700010E000BFCA6802F1040B0BE04FF0000B64
:1004800008E000BFCA6802F1080B03E0CA6802F185
:100490000C0B00BF02467446B9F5807F24BF0432BE
:1004A000203C166805FA04F726EA07070BFA04F65B
:1004B00037431760CA79D2067FF57EAF41F218073D
:1004C000C4F202073A684FF6084542F001023A606A
:1004D0003A68CFF6FF7502F001020192019A2AF004
:1004E00003021A440F2457590EF00C06B440A743D8
:1004F000009C04FA06F6374357514E6840F20C440C
:10050000F2029A6854BF22EA090242EA0902C4F2DE
:1005100001049A602268B70254BF22EA090242EA43
:10052000090222605A68B70354BF22EA090242EA6C
:1005300009025A600F251A68F70354BF22EA09021C
:1005400042EA09021A6037E702B0BDE8F08F000006
:10055000C26802EA0103914341EA03410161704725
:10056000002A08BF090401617047000040F25C00E6
:10057000C2F200000068704740F2040040F25C01E3
:10058000C2F20000C2F2000100780A68104408605C
:100590007047000080B542F20000C4F2020001681A
:1005A00041F010010160032000F090F8012000F0FC
:1005B00005F800F027F8002080BD000070B540F27B
:1005C0000406C2F2000640F20C013278C2F20001C9
:1005D0004FF47A730968B3FBF2F20446B1FBF2F10F
:1005E000084600F089FB0F2C4FF0010508D838B9F8
:1005F0004FF0FF3021460022002500F03BF87460E8
:10060000284670BD80B582B041F21800C4F20200E5
:10061000016841F001010160016801F001010191EF
:100620000199416841F080514160406800F080507C
:1006300000900098052000F049F80420C4F2010061
:100640000168022262F31A61016002B080BD0000FD
:10065000002848BF704700F01F01012202FA01F193
:100660001C2202EAD0004EF20012CEF200028150AB
:100670007047000010B54EF60C5CCEF2000CDCF8B2
:100680000030C3F3022E8EF00704042C28BF04248C
:10069000BEF103034FF0FF3E0EFA04F438BF00230F
:1006A000A14399400EFA03F39A43114300F00F025D
:1006B00000F160430901043A03F5644362440028F1
:1006C00048BF02F10C03197010BD00004EF60C512A
:1006D000CEF200010A684FF6FF031A4060F30A22C7
:1006E00042F0806040F0FD7008607047002804BF51
:1006F000012070472DE9F04381B042F20008C4F2B6
:1007000002080446D8F800000D4600F007008142B8
:100710000CD9D8F8000020F007002843C8F80000E2
:10072000D8F8000000F00700A8426CD1206841F220
:1007300004098107C4F2020917D5410705D5D9F884
:10074000001041F4E061C9F80010010705D5D9F89F
:10075000001041F46051C9F80010D9F80010A268E7
:1007600021F0F0011143C9F80010C00742D1D8F8B8
:10077000000000F0070085420CD2D8F8000020F0FD
:1007800007002843C8F80000D8F8000000F0070070
:10079000A84238D12068410707D5D9F80010E2688F
:1007A00021F4E0611143C9F80010000708D5D9F819
:1007B0000000216920F4605040EAC100C9F800003F
:1007C000D9F8002002F00C00082841F20020C0F205
:1007D0007A004DD141F2F233C2F38341C0F60003F7
:1007E000595CD20338D440F60010C0F23D004843B3
:1007F0003EE000BF606859F8041C022808D00128B8
:1008000026D1890306D4012001B0BDE8F08300BFE2
:100810008901F8D5D9F8001021F003010843C9F87F
:100820000000FFF7A3FE064641F28837D9F8000022
:10083000616800F00C00B0EB810F98D0FFF796FED6
:10084000801BB842F2D9032001B0BDE8F08300BF9D
:100850008907D8D5DEE700BFD9F8002041F2F03390
:10086000C2F34042C0F600039A5C4843B0FBF2F08A
:10087000D9F8001041F2D832C1F30311C0F60002DA
:10088000515C40F20C0220FA01F140F20800C2F281
:1008900000000068C2F200021160FFF78FFE002026
:1008A00001B0BDE8F083000040F20C0041F2040109
:1008B000C2F20000C4F202010068096841F2E832A5
:1008C000C1F30221C0F60002515CC840704700002D
:1008D00040F20C0041F20401C2F20000C4F2020135
:1008E0000068096841F2E832C1F3C221C0F6000293
:1008F000515CC84070470000002804BF01207047C9
:100900002DE9F04182B00446007841F20006C007AC
:10091000C4F202060CD0706800F00C00042840F00D
:1009200081803068800303D56068002800F046812C
:10093000207880071BD5706810F00C0F09D0706804
:1009400000F00C00082840F087807068C00300F1B8
:1009500083803068800703D52069012840F02E810C
:100960003068616920F0F80040EAC100306020780A
:10097000000713D4207840072CD4E569002D00F03F
:100980001881706800F00C00082840F0A780012D45
:1009900040F00481012002B0BDE8F081A069002888
:1009A00000F084800020C4F242200121C0F88014AD
:1009B000FFF7DCFD054600BF706A800700F1B280DA
:1009C000FFF7D4FD401B0228F6D9032002B0BDE892
:1009D000F08100BFF0695FEAC00808D4F06940F018
:1009E0008050F061F06900F080500090009847F26C
:1009F0000007C4F200073868C00549D4386840F4DD
:100A000080703860FFF7B2FD054600BF3868C0054A
:100A10003ED4FFF7ABFD401B6428F7D9032002B09A
:100A2000BDE8F081706800F00C00082803D1706800
:100A3000C0033FF576AF61683068002900F00C8193
:100A4000B1F5A02F00F00081B1F5803F40F01A8190
:100A500040F480301CE100BF2069002840F2000013
:100A6000C4F2422000F0888001210160FFF77EFD82
:100A7000054600BF306880073FF572AFFFF776FD8F
:100A8000401B0228F6D9032002B0BDE8F08100BF68
:100A9000E168306A002900F09D80052900F092800D
:100AA000012940F0AF8040F00100B1E00020C4F225
:100AB00042200021C0F88014FFF758FD054600BF12
:100AC000706A80077FF556AFFFF750FD401B022884
:100AD000F6D9032002B0BDE8F08100BF0027C4F2C0
:100AE000422700203866FFF741FD022D05460DD153
:100AF0003068800140F1DE80FFF738FD401B02289E
:100B00004FF00300F4D902B0BDE8F08130688001F5
:100B10004FD5FFF72BFD401B02284FF00300F5D9FE
:100B2000F1E700BF40F20C00C2F20000006844F69A
:100B3000D351C1F26201A0FB0101480A019000BF3C
:100B400000BF0198411E002801913FF413AF00BF80
:100B50000198411E002801913FF40CAF00BF01989D
:100B6000411E002801913FF405AF00BF0198411ECE
:100B700000280191E4D1FDE600210160FFF7F6FCB9
:100B8000054600BF306880077FF5F1AEFFF7EEFC49
:100B9000401B02284FF00300F4D9B4E77068216AC3
:100BA00000F480328A4209D1616A00F470108842F0
:100BB00004D1002002B0BDE8F08100BF012002B0E6
:100BC000BDE8F08140F004003062306A40F001007E
:100BD0001EE000BF20F001003062306A20F0040007
:100BE0003062FFF7C3FC054641F28837306A800760
:100BF00020D5FFF7BBFC401BB8424FF00300F5D9EE
:100C000081E700BF20F001003062306A20F004006C
:100C10003062FFF7ABFC054641F28837306A800747
:100C200008D4FFF7A3FC401BB842F7D9032002B059
:100C3000BDE8F081B8F1000F3FF59FAEF06920F0FC
:100C40008050F06199E600BF40F480203060306849
:100C500040F480301CE000BF20F480303060306809
:100C600020F480203060FFF781FC05463068800367
:100C70007FF55EAEFFF77AFC401B64284FF003005F
:100C8000F4D940E720F480303060306820F48020D0
:100C90003060FFF76BFC0546306880033FF548AED7
:100CA000FFF764FC401B6428F6D9032002B0BDE8BE
:100CB000F08100BF206AB0F5803F05D17168A2685D
:100CC00021F40031114371607168626A21F474117A
:100CD00011430843706001203866FFF747FC044663
:100CE000306880013FF565AFFFF740FC001B02282C
:100CF0004FF00300F4D906E7411E0020B0EB116F5E
:100D00001CBF012070474EF21002CEF2000251606B
:100D10004EF62351CEF20001F0230B7007219060B4
:100D200011607047002804BF0120704710B50446C9
:100D300090F8410028B9002084F84000204600F0D7
:100D400063F8242084F841002068D4E90212C368C3
:100D500023F40053C360036923F440531A43026130
:100D6000D4E904231143C268194341F20C639A4346
:100D70001143C1604169A26921F44071114343F6F6
:100D80000002C4F201029042416103D0FFF78CFDE2
:100D900002E000BFFFF79CFDD4E90023192148437E
:100DA0009900B0FBF1F048F21F5CC5F2EB1CA0FB10
:100DB0000C314FF69C734909C0F6FF7301FB030029
:100DC000322303EB0010A0FB0C03F02000EA5310C9
:100DD00000EB0110C3F34311084490601069202117
:100DE00020F490401061506920F02A005061D068D2
:100DF00040F40050D0600020606484F8411084F812
:100E00004210606310BD000070B586B040F600046B
:100E1000C4F20104006804F540510026884205969A
:100E2000CDE90366029601D006B070BD41F218000C
:100E3000C4F20200016802AD41F480410160016822
:100E400001F4804101910199016841F004010160C0
:100E50000068294600F00400019001984FF40070EA
:100E6000029002200390032005902046FFF77CFAB1
:100E70004FF48060CDE90206204629460496FFF72C
:100E800073FA06B070BD00002DE9F04381B004464E
:100E900090F84100202809D100294FF0010018BF27
:100EA000002A07D101B0BDE8F08300BF022001B0E5
:100EB000BDE8F0830020606421201D460E4684F8C2
:100EC00041001746FFF752FBA784E784A1688146DB
:100ED000B1F5805F02D1206900285DD0374600203F
:100EE000E28C2168002A5DD06A1C24D0002D4AD0F3
:100EF000804600BF0868000608D4FFF737FBA0EB68
:100F00000900A8427AD82168C868F3E717B117F832
:100F1000010B04E038F8020B00276FF35F204860F4
:100F2000E08C0138E084E08C0028E3D13AE000BF97
:100F30000A68120609D40A68120606D40A6812065C
:100F40005CBF0A685FEA0262F2D51FB117F8012B95
:100F500005E000BF30F8022B00276FF35F224A60E4
:100F6000E28C013AE284E28C002AE4D11AE000BF6C
:100F700030F8022B00276FF35F224A60E28C013ABF
:100F8000E284E28C72B10A68120635D5002FEFD0E8
:100F900017F8012BF1E700BF00273046E28C2168EB
:100FA000002AA1D1086840061ED42DB3681C14D1B4
:100FB000086840062AD40868400627D40868400616
:100FC00024D4086840064FF00000F1D50DE000BFC2
:100FD0002068C1680068400618D4FFF7C7FAA0EB84
:100FE0000900A842F4D909E00020202184F841102A
:100FF00001B0BDE8F08300BFFFF7B8FA032020215D
:1010000084F8411001B0BDE8F08300BF002020212A
:1010100084F8411001B0BDE8F083000041F60044BF
:10102000C4F2010420464FF480710022FFF798FAC1
:1010300020464FF400710022FFF792FA04A400BF8B
:10104000204600F0B7F94FF47A70FFF7C9F8F7E7D8
:10105000E9878EE68C87E99288E4BA8621212121EE
:1010600021000000FEE70000FEE7000070470000DE
:1010700070470000FFF780BA70470000FEE70000ED
:1010800010B582B0014640F21000C2F200000068C4
:101090004FF0FF34019148B101A901224FF0FF3315
:1010A000FFF7F2FE0199002808BF0C46204602B067
:1010B00010BD000090B0FFF76DFA00240120CDE9CB
:1010C0000B44CDE9094406900A904FF4E0104FF428
:1010D000803102250F9006A8CDE90714CDE90D5106
:1010E000FFF70AFC20B1EFF3108072B6FEE700BFF5
:1010F0000F20CDE901054FF4806701A80221039478
:10110000CDE90474FFF7F2FA20B1EFF3108072B664
:10111000FEE700BF002641F21800CDE90866CDE9E0
:101120000666C4F20200016841F6004441F0800105
:1011300001600168C4F2010401F08001019101998C
:101140000168012241F00401016001684FF4407818
:1011500001F00401019101990168012541F48071B8
:10116000016000684FF4407100F4807001900198B4
:101170002046FFF7F5F9CDE90685022006AD099076
:10118000204629460896FFF7EFF80020C1F221001B
:10119000CDE9070604F5806029460697FFF7E4F8D5
:1011A000282003210022FFF765FA2820FFF750FAD4
:1011B00040F2140004F5E051C2F200000C254FF497
:1011C000E1324FF480534FF4C06780E8CE00C0E9AD
:1011D0000556C661FFF7A6FD20B1EFF3108072B689
:1011E000FEE700BF40F21400C2F20000FEF7EAFF83
:1011F00006A400BFFFF7BAF90146204600F010F838
:101200004FF47A70FEF7ECFFF4E700BF637572727B
:101210005F74696D653A202575206D730A000000C2
:101220000FB4054B10B503A9044A029800F018F852
:1012300010BC5DF814FB00008110000800000020C5
:1012400002E008C8121F08C1002AFAD1704770478F
:10125000002001E001C1121F002AFBD170470000ED
:101260002DE9FF4F89B09B460446002506E025285E
:101270000BD05A460B999047641C6D1C20780028AF
:10128000F5D10DB02846BDE8F08F0027B846012201
:10129000474900E0074314F8013F203B02FA03F0FE
:1012A0000842F7D120782E2819D114F8010F47F001
:1012B00004072A280ED06FF02F022078A0F1300109
:1012C00009290CD808EB880102EB410100EB010869
:1012D000641CF2E70A98641C50F8048B0A9020788A
:1012E0000028CED0642808D0692806D075281ED0E2
:1012F0005A460B9990476D1C58E00A994FF00A091D
:1013000001C90A91002802DA40422D2102E0390584
:1013100004D52B218DF82010012103E0F90704D01A
:101320002021F7E78A4608AE0DE00021FAE70A9986
:101330004FF00A0901C90A91F7E74946FEF714FF81
:10134000303106F8011D0028F7D1ADEB060000F1A1
:101350002009780701D44FF00108C84502DDA8EB49
:10136000090000E000208046002706E008A85A4651
:10137000C05D0B9990476D1C7F1C5745F6DB04E060
:1013800030205A460B9990476D1CB8F10001A8F126
:101390000108F5DC05E016F8010B5A460B99904759
:1013A0006D1CB9F10001A9F10109F4DC641C65E7C9
:1013B0000928010010B5044601E0FFF761FE14F8AA
:1013C000010B04490028F8D1BDE810400A20FFF7BE
:1013D00057BE0000000000200000000000000000D8
:1013E00001020304060708090000000001020304CB
:1013F000010202030405060708090A0B0C0D0E0F73
:101400001010000028140008000000201000000048
:10141000401200083814000810000020500400009A
:101420005012000800000000000000000100000051
:081430001000000000127A0018
:0400000508000131BD
:00000001FF
