:020000040800F2
:10000000D004002045010008B52A00084523000857
:10001000B12A0008E10B0008C92A0008000000000E
:10002000000000000000000000000000BD2A0008E1
:10003000E50B000800000000B92A0008C12A0008EA
:100040005F0100085F0100085F0100085F01000810
:100050005F0100085F0100085F0100085F01000800
:100060005F0100085F0100085F0100085F010008F0
:100070005F0100085F0100085F0100085F010008E0
:100080005F0100085F0100085F0100085F010008D0
:100090005F0100085F0100085F0100085F010008C0
:1000A0005F0100085F0100085F0100085F010008B0
:1000B0005F0100085F0100085F0100085F010008A0
:1000C0005F0100085F0100085F0100085F01000890
:1000D0005F0100085F0100085F0100085F01000880
:1000E0005F0100085F0100085F0100085F01000870
:1000F0005F0100085F0100085F0100085F01000860
:100100005F0100085F0100085F0100085F0100084F
:100110005F0100085F0100085F0100085F0100083F
:100120005F0100085F0100085F0100085F0100082F
:10013000DFF80CD000F018F900480047452B000804
:10014000D00400200648804706480047FEE7FEE747
:10015000FEE7FEE7FEE7FEE7FEE7FEE7FEE7FEE777
:10016000C52A0008310100080FB400B589B00BA8FA
:1001700000906A4603480A9900F0ECF809B05DF86F
:1001800014FB0000000000202DE9FF5F1D464FF02A
:10019000FF3BD5E9014691465F464FF00008A9694B
:1001A0007F1C01988847296A824688470028F6D133
:1001B000BAF1FF3F0CD024F4C064002E19DD6006B4
:1001C00014D5BAF12B0F09D0BAF12D0F0ED103E0DF
:1001D000584604B0BDE8F09F44F48064A9697F1CD0
:1001E00001988847761E8246002E02DDBAF1300F54
:1001F00003D0B9F1000F26D032E0A969761E44F48D
:1002000000747F1C019888478246002E05DDBAF1F4
:10021000780F06D0BAF1580F03D0B9F1000F10D003
:100220001EE0B9F1000F02D0B9F1100F18D1A96981
:10023000761E24F400747F1C0198884782461020A3
:1002400002E0082000E00A20814609E008FB0908D6
:10025000A969761E44F400747F1C01988847824681
:10026000002E05DD4946504600F065F80028EDDA1D
:10027000E96901988847A00502D46FF00100A8E75A
:10028000E00725D1600613D5600502D5C8F100004E
:1002900000E0404629680A1D2A600968220501D548
:1002A000087015E0220701D5088011E008600FE012
:1002B0002868011D29600068210502D580F80080AA
:1002C00006E0210702D5A0F8008001E0C0F8008018
:1002D00038467EE72DE9F05F0546002092469B46B2
:1002E00088460646814640241BE02846414647464C
:1002F000224600F076F853465A46C01A914110D370
:1003000011461846224600F05DF82D1A67EB0108E9
:100310004F4622460120002100F054F817EB000957
:100320004E41201EA4F10104DFDC484631462A4636
:100330004346BDE8F09F3A2800D2303820F0200232
:10034000412A01D3A2F13700884201D34FF0FF3098
:1003500070470000024B9361024BD36100F058B824
:10036000CD2A0008B50300081CB5094800900948CB
:1003700001900546009C06E0E06840F0010394E827
:10038000070098471034AC42F6D3FFF7D5FE0000C3
:100390005433000874330008094910B508784C1C20
:1003A00018B1401E0870205C10BD00210720ABBEB4
:1003B000207010BD02490878421C0A707047000086
:1003C00008000020202A04DB203A00FA02F1002075
:1003D00070479140C2F1200320FA03F31943904083
:1003E0007047202A04DB203A21FA02F000217047EE
:1003F00021FA02F3D040C2F120029140084319468D
:100400007047000002681144137801601846704775
:10041000D160044951610449116200211161114602
:1004200000F00AB8050400082D040008C0B24FF41B
:10043000F05100F097B900002DE9F34F8BB04FF069
:10044000000801F10C000C464FF0010B46460DF17F
:10045000080A01906269012101989047051E2DD07C
:10046000252D2CD0216A8847C0B1626901210198ED
:100470009047216A88470028F7D1411E6269019898
:10048000904700E0761CA1690B988847216A88474D
:100490000028F7D1E1690B988847DBE7A1690B9841
:1004A00088470746A84201D1761CD3E7E1690B983B
:1004B00088477F1C02D1B8F1000F6FD046E10027BA
:1004C00062693D463946019890472A2804D16269FD
:1004D0000121019890470125DFF88492626901218A
:1004E00001989047A0F130010A290AD24F45E5DC76
:1004F00007EB870100EB4107303FDFD445F01005E3
:10050000ECE7E90601D46FF000476C280AD04C28CC
:1005100014D0682815D06A280DD074281CD07A28E9
:100520001AD01DE062690121019890476C2802D021
:1005300045F0040514E045F002050DE045F0200506
:100540000AE06269012101989047682802D045F0CD
:10055000080505E045F400656269012101989047AE
:10056000C4E9015765283DD019DC58287AD00CDC45
:10057000452837D004DC252826D0412831D131E068
:1005800046282FD047282CD12CE05B2877D0612833
:1005900028D063287CD0642823D15AE0D0E06F288B
:1005A00048D008DC66281DD067281BD0692821D0D8
:1005B0006E2816D127E0702845D0732868D075289A
:1005C00047D078280DD14DE0A1690B9888470546A2
:1005D00025283FF469AFE1690B9888476D1C3FF40B
:1005E0006AAFB3E023466A466FF001000B99AFF3A0
:1005F00000809EE045F040006060A80723464FF071
:10060000000236D43EE0E8077FF447AF2068011DC2
:1006100021600068290501D506701BE7290701D56F
:10062000068017E7A90703D5F117C0E9006111E7B4
:1006300006600FE745F040006060A80723464FF0D2
:10064000080216D41EE040F60E0125EA01006060A3
:1006500016E045F040006060A80723464FF00A020C
:1006600007D40FE045F040006060A80708D5234696
:1006700010226FF001000B99AFF3008059E007E002
:10068000234610226FF001000B99FFF77DFD50E02B
:100690004FF000094F464B46632802D05B2806D036
:1006A00040E0E80601D40120A06001273AE0626939
:1006B0000121019890475E2805D14FF00109626938
:1006C000494601989047216939B900210A465346A5
:1006D00043F82120491C0829FADBB0B3216969B924
:1006E000C11700EBD16253110AEB830122F01F0204
:1006F000821A01200B68904003430B60626901215C
:10070000019890475D28E8D1B9F1000F09D0002089
:10071000514651F82020D24341F82020401C08289F
:10072000F7DB02AB224600976FF001000B99AFF3A5
:10073000008000280CDA401C08D1BBF1000F05D066
:100740004FF0FF300DB0BDE8F08FFFE74046F9E70E
:10075000E90701D108F1010806444FF0000B79E6E2
:10076000CCCCCC0C7F2801D9002208E0064A02EB51
:100770005002C007127800D1120902F00F020120C6
:10078000904008407047000070310008B0B582B05A
:100790000020019043F23820C0F6000075A102F05D
:1007A00083FA43F24F30C0F6000001A9FFF7DCFCEA
:1007B00001281FD1019802282AD0012820D140F217
:1007C0002004C2F2000440F2351020800020019085
:1007D00043F23820C0F6000078A102F065FA43F237
:1007E0004F30C0F6000001A9FFF7BEFC01281DD163
:1007F000019822E043F20130C0F6000002F0A6FCAE
:1008000043F2DB20C0F6000002F0A0FC02B0B0BD55
:1008100040F22001C2F200010020082200F044F959
:1008200060A002F093FC02B0B0BD00BF43F2013003
:10083000C0F6000002F08AFCFF20A07000200190AA
:1008400043F2382043F26921C0F60000C0F60001EF
:1008500002F02AFA43F24F30C0F6000001A9FFF778
:1008600083FC012802D1019807E000BF43F2013068
:10087000C0F6000002F06AFCFF20E070002001904A
:1008800043F2382043F28F21C0F60000C0F6000189
:100890004FF6FF7502F008FA43F24F30C0F6000041
:1008A00001A9FFF761FC012802D1019808E000BF0F
:1008B00043F20130C0F6000002F048FC4FF6FF7032
:1008C000A0800020019043F2382043F2B521C0F609
:1008D0000000C0F6000102F0E7F943F24F30C0F625
:1008E000000001A9FFF740FC012801D1019D05E0AE
:1008F00043F20130C0F6000002F028FC43F224303D
:10090000C0F60000E58002F021FC217843F23F2090
:10091000C0F6000002F0C8F9617843F25320C0F637
:10092000000002F0C1F9A17843F2E210C0F6000025
:1009300002F0BAF9E17843F22120C0F6000002F09B
:10094000B3F9A18843F20C20C0F6000002F0ACF924
:10095000E18843F2F510C0F6000002F0A5F900208E
:100960002146082200F0D0F81EA002F0EFFB02B0F2
:10097000B0BD00BF312E20E9878DE696B0E9858DA8
:10098000E7BDAEE58F82E695B020322E20E4BDBFF4
:10099000E794A8E78EB0E69C89E79A84E9858DE71D
:1009A000BDAE00003E3E206C6F616420636F6E66DA
:1009B000696720646F6E65203C3C0000737465704D
:1009C000313A20E98089E68BA94C45445B312C34CF
:1009D0005D2C2035E8A1A8E7A4BAE585A8E98089BF
:1009E0003E3E20003E3E20777269746520636F6E44
:1009F00066696720646F6E65203C3C0010B540F26C
:100A00002004C2F200042078352818BF10BD607899
:100A1000012811D1E18809A002F046F9E08800F030
:100A2000E3F80EA002F092FBA078E178A288BDE87E
:100A3000104001F0CDBF00BF10BD00BF3E3E2025DD
:100A400064206D73E4B98BE5908E2C20E5BC80E5C5
:100A5000A78BE997AAE781AF0A0000003E3E20E994
:100A600097AAE781AFE4B8AD2E2E2E00C0B110B525
:100A700040F21804A021C2F20004C0F20801C4E947
:100A80000001A0210222052300F074FA002806BF0D
:100A90000120E071E079BDE8104000F001007047EE
:100AA000002000F00100704780B584B04FF0000EC8
:100AB00052B100291FBF40F2180CC2F2000C9CF882
:100AC00007305FEAC37303D1704604B080BD00BF36
:100AD0001318B3F5807FF7D8DCF80030BCF804C0F9
:100AE0004FF0320ECDE9001202461846614601234E
:100AF000CDF808E000F048FBB0FA80F04FEA501E55
:100B0000704604B080BD00002DE9F04F83B08046F0
:100B10004FF000005AB100298A461FBF40F2180961
:100B2000C2F2000999F807105FEAC17102D103B05F
:100B3000BDE8F08F02EB08009346B0F5807F03D943
:100B4000002003B0BDE8F08F0026B3B25B453DD274
:100B500006EB080099F8061082B2B2FBF1F0ABEB9D
:100B6000060500FB11241FFA85FC081B87B26745A8
:100B700038BF054628061CBF99F807705FEAC7779B
:100B80004FF00000D3D0EFB2E01980B28842D7D83E
:100B9000D9F80000B9F804105344CDE90037012317
:100BA0003227029700F096FC0028C9D199F8070077
:100BB0000128C5D1D9F80000B9F804100A2202238F
:100BC00000F0D8F900282E44BFD0B9E7012003B0C7
:100BD000BDE8F08F40F22801C2F2000108607047C2
:100BE000FEE7000070470000B0B5044600F00AF9C7
:100BF000054640F20C00C2F200000078611C18BFEC
:100C0000044400BF00F0FEF8401BA042FAD3B0BD80
:100C10002DE9F04F82B00E68002E00F0E980A0F1BF
:100C2000804241F6004540F20043A2F58432C4F20E
:100C300001050624C4F201034FEAB227A84208BF07
:100C400005244FF0000E4FF001080F254FF0000A69
:100C50004FF0000B052F38BF4FEAB224009408E094
:100C60000E680AF1010A36FA0AF20EF1040E00F0DB
:100C7000BF8008FA0AFC16EA0C09F1D04E684FF65C
:100C8000FF72C1F21002964212DC122E56D8DFE833
:100C900006F0350B4D495555555555555555555536
:100CA00055555545510000BFD1F80CB046E000BF86
:100CB0004FF6FF72C1F2210296420FDC0022C1F210
:100CC000110296421AD00022C1F21202964215D0A9
:100CD0000022C1F22102964210D02FE00022C1F280
:100CE000220296420AD00022C1F23102964205D079
:100CF0000022C1F23202964220D100BF8A684AB176
:100D0000012A14BFC0F814C0C0F810C04FF0080B7F
:100D100014E000BF4FF0040B10E000BFCA6802F1FE
:100D2000040B0BE04FF0000B08E000BFCA6802F1B3
:100D3000080B03E0CA6802F10C0B00BF02467446C0
:100D4000B9F5807F24BF0432203C166805FA04F709
:100D500026EA07070BFA04F637431760CA79D2066A
:100D60007FF57EAF41F21807C4F202073A684FF6EA
:100D7000084542F001023A603A68CFF6FF7502F08A
:100D800001020192019A2AF003021A440F245759D2
:100D90000EF00C06B440A743009C04FA06F6374355
:100DA00057514E6840F20C44F2029A6854BF22EA4E
:100DB000090242EA0902C4F201049A602268B702F9
:100DC00054BF22EA090242EA090222605A68B703C4
:100DD00054BF22EA090242EA09025A600F251A6842
:100DE000F70354BF22EA090242EA09021A6037E710
:100DF00002B0BDE8F08F0000002A08BF09040161BD
:100E00007047000040F2C800C2F20000006870475E
:100E1000002804BF01207047F0B581B0044690F867
:100E20003D0028B9002084F83C00204600F000FC7A
:100E3000242084F83D002068016821F00101016050
:100E4000016841F400410160016821F40041016042
:100E500000F0A6FD636848F2A16CC0F2010C40F6F8
:100E60000011C0F23D0163453CBF48F28041C0F231
:100E70001E01884202D2012001B0F0BD4DF683610F
:100E8000C4F21B31A0FB01122168970CD1F804E0D9
:100E90004FF496762EF03F0545EA92454D60774334
:100EA00048F638160D6AC0F24106A7FB067625F013
:100EB0003F07634538BF960C721C3A430A62CA6901
:100EC00048F2A0664CF6FF77C0F20106B34222EA70
:100ED00007020BD801385B00B0FBF3F001306FF371
:100EE0001F30042898BF04201BE000BFA76801380A
:100EF00057B119277B43B0FBF3F001306FF31F307C
:100F000070B100F5804007E003EB4303B0FBF3F062
:100F100001306FF31F3018B100F5004001E000BF51
:100F200001201043C8610868D4E9072320F0C000FD
:100F3000104318430860886848F2FF3204F10C0738
:100F400090438CCF18431043A6698860C86820F08E
:100F5000FF0038433043C860086840F00100086073
:100F600000202021206484F83D10206384F83E0096
:100F700001B0F0BD2DE9F04F83B01E469246884681
:100F80000446FFF73FFF94F83D10202924D1216843
:100F9000054600BF886980071AD5FFF733FF401B5D
:100FA00021681A28F6D388698007F3D5002020210C
:100FB000206384F83D1084F83E00216C41F020014C
:100FC000216484F83C00022003B0BDE8F08F00BF2C
:100FD00094F83C00012803D1022003B0BDE8F08F53
:100FE0004FF0010984F83C900868C00703D10868F5
:100FF00040F0010008600868002720F400600860E5
:10100000242084F83D000020CFF6FF702764E062C2
:1010100008F0FE08BAF1010F88BFD1464FF0A00AD0
:101020004FF0200B04E000BF01374F4500F0A280D5
:101030000868002240F48070086020464FF00111DB
:101040003346009501F0CCFA2168002856D1C1F84A
:101050001080FFF7D7FE21684B694A6994F83D502C
:10106000A02D054605D013F0020008BF12F48060E1
:101070001AD084F83DB048690A68800742F40072CB
:101080000A6045D46FF48060486100BF88698007BA
:10109000CAD5FFF7B7FE401B21681A28F6D3886926
:1010A0008007F3D54AE000BFB6B100BFFFF7AAFE44
:1010B000401BB04288BF84F83DA021684A69486956
:1010C00094F83D30A02BD4D012F0020208BF10F4E7
:1010D0008060EBD0CDE700BFFFF794FE84F83DA021
:1010E00021684A69486994F83D30A02BC1D012F0BC
:1010F0000202BED110F48060EED0BAE70868C005E5
:1011000044BF4FF400702064032003B0BDE8F08FAB
:1011100000200290486902908869029002988869CC
:1011200001E000BF806980071AD5FFF76BFE411B05
:1011300020681A29F6D381698907F3D50020202178
:10114000206384F83D1084F83E00216C41F02001BA
:10115000216484F83C00012003B0BDE8F08F00BF9B
:10116000202084F83D00002084F83C0003B0BDE856
:10117000F08F00BF202084F83D00002084F83C0060
:10118000012003B0BDE8F08F2DE9F04F85B0044693
:101190000020994616460F460490FFF733FE94F858
:1011A0003D10202927D10546206800BF81698907A5
:1011B0001CD5FFF727FE411B20681A29F6D3816949
:1011C0008907F3D500202021206384F83D1084F89E
:1011D0003E00206C04F13C0A40F020002064022014
:1011E00000218AF8001005B0BDE8F08FA2461AF879
:1011F0003C1F012904D1022005B0BDE8F08F00BFDB
:1012000001228AF800200368DDE90F180E9ADB0737
:1012100003D1036843F001030360036823F4006310
:101220000360222084F83D00402084F83E00002026
:10123000206462626185608D394620850020CFF68A
:10124000FF70E062204632464B46CDE9008501F052
:101250007BF818B1012005B0BDE8F08F208D022881
:1012600026D001280ED0002838D100200390206815
:1012700041690391816903910399016841F4007107
:10128000016037E02068016821F480610160EFF3BC
:10129000108072B600200390206841690391816933
:1012A00003910399016841F40071016062B621E085
:1012B0002068016841F400610160EFF3108072B6AC
:1012C000002003902068416903918169039103998B
:1012D000016821F48061016062B60BE0206801685A
:1012E00041F48061016000210391416903918069AB
:1012F00003900398208D002800F0CC80042740F252
:1013000014094BF2895BC0F20107C2F20009C1F275
:10131000F84B23260EE000BF10690870606A218D2B
:1013200001306062481E2085618D013961850104AC
:1013300000F0B08080B203280CD802282CD00128FD
:101340004AD1204641462A4601F09CFA002800F086
:101350009C807FE7204641462A4601F093FA002808
:101360007FF478AF2068616A00690870606A22685B
:10137000411C208D616201382085638D013B6385AE
:1013800053695B07D3D580B20328C5D1106820F418
:1013900080601060C0E700BF204639460022434607
:1013A000009501F01DF900287FF454AFEFF3108091
:1013B00072B62068616A026842F4007202600069D5
:1013C0000870606A218D01306062481E2085608D42
:1013D0000138608562B658E020463946002243460F
:1013E000009501F0FDF800287FF434AF2068016813
:1013F00021F480610160EFF3108072B62068616AA9
:1014000000690870606A218D0130013960622185B0
:10141000618D01396185D9F80010C908A1FB0B1253
:10142000110A714304910499013904910499002926
:101430003CD021684A69520717D4049A013A0492B1
:10144000049A9AB34A6952070FD4049A013A049253
:10145000049A5AB34A69520707D4049A013A04928B
:10146000049A1AB34A695207DDD50A6842F4007239
:101470000A6009690170606A218D01306062481E4E
:101480002085608D0138608562B62068616A0069D8
:1014900043E700BF202084F83D00002084F83E0090
:1014A00000218AF8001005B0BDE8F08F002020214F
:1014B000206384F83D1084F83E00206C40F020004A
:1014C000206462B6012000218AF8001005B0BDE852
:1014D000F08F00002DE9F04383B0994616460F4681
:1014E0000446FFF78FFC94F83D10202924D10546CF
:1014F000206800BF816989071AD5FFF783FC411B6B
:1015000020681A29F6D381698907F3D500202021A4
:10151000206384F83D1084F83E00216C41F02001E6
:10152000216484F83C00022003B0BDE8F08300BFD2
:1015300094F83C10012903D1022003B0BDE8F083E8
:10154000012284F83C200368DDE90B180A9ADB07C6
:1015500003D1036843F001030360036823F40063CD
:101560000360212084F83D00402084F83E000020E4
:10157000206462626185608D394620850020CFF647
:10158000FF70E062204632464B46CDE9008500F010
:1015900065FF18B1012003B0BDE8F083208D98B934
:1015A000204641462A4600F0BDFF88B3206C04283F
:1015B000F0D12068016841F400710160012003B09E
:1015C000BDE8F0830004EBD0204641462A4601F0F6
:1015D000A1F90028EAD1616A2268084610F8013BA7
:1015E0001361238D6062581E2085678D013F6785DA
:1015F00057697F07E6D50704E4D048781061881C56
:101600006062981E2085618D01396185DAE700BF2F
:101610002068016841F400710160202084F83D00D9
:10162000002084F83E0084F83C0003B0BDE8F0835D
:1016300010B586B0016845F60000C4F20000814292
:101640004FF00001CDE90411CDE9021102D006B03E
:1016500010BD00BF41F21804C4F20204216800F575
:10166000344041F008012160216801F00801019136
:1016700001994FF4406102911221039103210591D8
:1016800002A9FFF7C5FA606840F4800060606068F6
:1016900000F480000190019806B010BD40F20C00EB
:1016A00040F2C801C2F20000C2F2000100780A68EC
:1016B000104408607047000080B542F20000C4F298
:1016C0000200016841F010010160032000F07AF887
:1016D0000F2000F005F800F027F8002080BD000082
:1016E00070B540F20C06C2F2000640F214013278E6
:1016F000C2F200014FF47A730968B3FBF2F20446B8
:10170000B1FBF2F1084600F073FB0F2C4FF001051E
:1017100008D838B94FF0FF3021460022002500F0EC
:1017200025F87460284670BD82B041F21800C4F2FA
:1017300002000168022241F001010160016801F02C
:10174000010101910199416841F080514160406877
:1017500000F08050009000980420C4F2010001685D
:1017600062F31A61016002B07047000010B54EF6D6
:101770000C5CCEF2000CDCF80030C3F3022E8EF0CD
:101780000704042C28BF0424BEF103034FF0FF3EDE
:101790000EFA04F438BF0023A14399400EFA03F374
:1017A0009A43114300F00F0200F160430901043A2B
:1017B00003F564436244002848BF02F10C0319702A
:1017C00010BD00004EF60C51CEF200010A684FF633
:1017D000FF031A4060F30A2242F0806040F0FD707F
:1017E00008607047002804BF012070472DE9F043CE
:1017F00081B042F20008C4F202080446D8F80000A2
:101800000D4600F0070081420CD9D8F8000020F006
:1018100007002843C8F80000D8F8000000F00700CF
:10182000A8426CD1206841F204098107C4F2020980
:1018300017D5410705D5D9F8001041F4E061C9F882
:101840000010010705D5D9F8001041F46051C9F81E
:101850000010D9F80010A26821F0F0011143C9F876
:101860000010C00742D1D8F8000000F00700854200
:101870000CD2D8F8000020F007002843C8F8000078
:10188000D8F8000000F00700A84238D120684107CE
:1018900007D5D9F80010E26821F4E0611143C9F8D6
:1018A0000010000708D5D9F80000216920F4605025
:1018B00040EAC100C9F80000D9F8002002F00C008D
:1018C000082841F20020C0F27A004DD143F2CA1339
:1018D000C2F38341C0F60003595CD20338D440F60A
:1018E0000010C0F23D0048433EE000BF606859F878
:1018F000041C022808D0012826D1890306D401201F
:1019000001B0BDE8F08300BF8901F8D5D9F8001017
:1019100021F003010843C9F80000FFF773FA0646F7
:1019200041F28837D9F80000616800F00C00B0EB94
:10193000810F98D0FFF766FA801BB842F2D90320D6
:1019400001B0BDE8F08300BF8907D8D5DEE700BF4E
:10195000D9F8002043F2C813C2F34042C0F6000396
:101960009A5C4843B0FBF2F0D9F8001043F2B01291
:10197000C1F30311C0F60002515C40F2140220FAD8
:1019800001F140F21000C2F200000068C2F2000251
:101990001160FFF7A5FE002001B0BDE8F083000054
:1019A00040F2140041F20401C2F20000C4F202014C
:1019B0000068096843F2C012C1F30221C0F60002B8
:1019C000515CC8407047000040F2140041F204012D
:1019D000C2F20000C4F202010068096843F2C012BA
:1019E000C1F3C221C0F60002515CC840704700003C
:1019F000002804BF012070472DE9F04182B0044661
:101A0000007841F20006C007C4F202060CD07068EC
:101A100000F00C00042840F081803068800303D57A
:101A20006068002800F04681207880071BD5706828
:101A300010F00C0F09D0706800F00C00082840F07E
:101A400087807068C00300F183803068800703D509
:101A50002069012840F02E813068616920F0F8008B
:101A600040EAC10030602078000713D42078400796
:101A70002CD4E569002D00F01881706800F00C008E
:101A8000082840F0A780012D40F00481012002B019
:101A9000BDE8F081A069002800F084800020C4F235
:101AA00042200121C0F88014FFF7ACF9054600BFC1
:101AB000706A800700F1B280FFF7A4F9401B02288A
:101AC000F6D9032002B0BDE8F08100BFF0695FEAFB
:101AD000C00808D4F06940F08050F061F06900F06F
:101AE00080500090009847F20007C4F20007386861
:101AF000C00549D4386840F480703860FFF782F937
:101B0000054600BF3868C0053ED4FFF77BF9401B8F
:101B10006428F7D9032002B0BDE8F081706800F0B6
:101B20000C00082803D17068C0033FF576AF6168E8
:101B30003068002900F00C81B1F5A02F00F0008181
:101B4000B1F5803F40F01A8140F480301CE100BFC5
:101B50002069002840F20000C4F2422000F0888092
:101B600001210160FFF74EF9054600BF306880078C
:101B70003FF572AFFFF746F9401B0228F6D9032064
:101B800002B0BDE8F08100BFE168306A002900F0D2
:101B90009D80052900F09280012940F0AF8040F03F
:101BA0000100B1E00020C4F242200021C0F88014FE
:101BB000FFF728F9054600BF706A80077FF556AF2A
:101BC000FFF720F9401B0228F6D9032002B0BDE838
:101BD000F08100BF0027C4F2422700203866FFF7DB
:101BE00011F9022D05460DD13068800140F1DE80EB
:101BF000FFF708F9401B02284FF00300F4D902B0A8
:101C0000BDE8F081306880014FD5FFF7FBF8401B3D
:101C100002284FF00300F5D9F1E700BF40F21400AD
:101C2000C2F20000006844F6D351C1F26201A0FB89
:101C30000101480A019000BF00BF0198411E002821
:101C400001913FF413AF00BF0198411E002801919C
:101C50003FF40CAF00BF0198411E002801913FF4F2
:101C600005AF00BF0198411E00280191E4D1FDE6B7
:101C700000210160FFF7C6F8054600BF3068800705
:101C80007FF5F1AEFFF7BEF8401B02284FF00300CE
:101C9000F4D9B4E77068216A00F480328A4209D12D
:101CA000616A00F47010884204D1002002B0BDE8DF
:101CB000F08100BF012002B0BDE8F08140F00400D7
:101CC0003062306A40F001001EE000BF20F00100E9
:101CD0003062306A20F004003062FFF793F8054666
:101CE00041F28837306A800720D5FFF78BF8401B18
:101CF000B8424FF00300F5D981E700BF20F00100A2
:101D00003062306A20F004003062FFF77BF805464D
:101D100041F28837306A800708D4FFF773F8401B18
:101D2000B842F7D9032002B0BDE8F081B8F1000F46
:101D30003FF59FAEF06920F08050F06199E600BF5A
:101D400040F480203060306840F480301CE000BFF8
:101D500020F480303060306820F480203060FFF75D
:101D600051F80546306880037FF55EAEFFF74AF80C
:101D7000401B64284FF00300F4D940E720F4803082
:101D80003060306820F480203060FFF73BF8054673
:101D9000306880033FF548AEFFF734F8401B6428F5
:101DA000F6D9032002B0BDE8F08100BF206AB0F58B
:101DB000803F05D17168A26821F400311143716040
:101DC0007168626A21F47411114308437060012044
:101DD0003866FFF717F80446306880013FF565AFB5
:101DE000FFF710F8001B02284FF00300F4D906E7B4
:101DF000411E0020B0EB116F1CBF012070474EF256
:101E00001002CEF2000251604EF62351CEF20001D4
:101E1000F0230B700721906011607047002804BF09
:101E20000120704710B5044690F8410028B9002001
:101E300084F84000204600F063F8242084F8410034
:101E40002068D4E90212C36823F40053C360036915
:101E500023F440531A430261D4E904231143C268B6
:101E6000194341F20C639A431143C1604169A2696D
:101E700021F44071114343F60002C4F20102904282
:101E8000416103D0FFF78CFD02E000BFFFF79CFD2E
:101E9000D4E90023192148439900B0FBF1F048F23E
:101EA0001F5CC5F2EB1CA0FB0C314FF69C7349097B
:101EB000C0F6FF7301FB0300322303EB0010A0FB0D
:101EC0000C03F02000EA531000EB0110C3F34311A0
:101ED000084490601069202120F4904010615069FE
:101EE00020F02A005061D06840F40050D0600020FB
:101EF000606484F8411084F84210606310BD0000F3
:101F000070B586B040F60004C4F20104006804F520
:101F10004051002688420596CDE90366029601D01D
:101F200006B070BD41F21800C4F20200016802ADB3
:101F300041F480410160016801F4804101910199FF
:101F4000016841F0040101600068294600F00400C6
:101F5000019001984FF4007002900220039003203A
:101F600005902046FEF754FE4FF48060CDE902064E
:101F7000204629460496FEF74BFE06B070BD0000D1
:101F80002DE9F04381B0044690F84200202809D1A1
:101F9000884600294FF0010018BF002A06D101B081
:101FA000BDE8F083022001B0BDE8F08300202221CB
:101FB0001D46606484F8421020631646FEF722FF37
:101FC000A685E685A1680746B1F5805F02D1206944
:101FD000002851D046464FF00008E08D00284FD031
:101FE00005F101090CE000BF406800266FF35F2097
:101FF00028F8020BE08D0138E085E08D00283FD005
:1020000020680168890617D4B9F1000F22D0002D8D
:1020100000F0CA80FEF7F6FEC01BA84200F2BC80AA
:102020002068C168490744BF01685FEA01712FD485
:1020300001688906EED500BF002ED5D0A168B1F5A4
:10204000805F15D009B9216991B1406800F07F0027
:102050000FE000BF01688906EED4016889065CBF05
:1020600001685FEA8161E7D401688906F2D5E3E798
:10207000406806F8010BBDE70026E08D0028AFD1CF
:102080000020202184F8421001B0BDE8F08300BF99
:10209000002100910168009140680090009800BF05
:1020A000206850E8030F216820F4907041E8030293
:1020B000BAB3206850E8030F216820F4907041E81B
:1020C000030272B3206850E8030F216820F4907077
:1020D00041E803022AB3206850E8030F216820F486
:1020E000907041E80302002ADAD11AE0206850E833
:1020F000050F216820F0010041E80502DAB12068EF
:1021000050E8050F216820F0010041E8050292B176
:10211000206850E8050F216820F0010041E8050221
:102120004AB1206850E8050F216820F0010041E81D
:102130000502002ADAD1206B012824D1206850E85A
:10214000030F216820F0100041E80302DAB1206893
:1021500050E8030F216820F0100041E8030292B11B
:10216000206850E8030F216820F0100041E80302C6
:102170004AB1206850E8030F216820F0100041E8C0
:102180000302002ADAD1202084F84200002008212E
:102190002063616484F840000320202184F8421009
:1021A00001B0BDE8F08300BFFEF72CFEF4E70000AD
:1021B0002DE9F04381B0044690F84100202809D170
:1021C00000294FF0010018BF002A07D101B0BDE877
:1021D000F08300BF022001B0BDE8F08300206064FE
:1021E00021201D460E4684F841001746FEF70AFEE0
:1021F000A784E784A1688146B1F5805F02D1206998
:1022000000285DD037460020E28C2168002A5DD08E
:102210006A1C24D0002D4AD0804600BF0868000602
:1022200008D4FEF7EFFDA0EB0900A8427AD8216898
:10223000C868F3E717B117F8010B04E038F8020B90
:1022400000276FF35F204860E08C0138E084E08C69
:102250000028E3D13AE000BF0A68120609D40A68F0
:10226000120606D40A6812065CBF0A685FEA0262B8
:10227000F2D51FB117F8012B05E000BF30F8022B93
:1022800000276FF35F224A60E28C013AE284E28C1D
:10229000002AE4D11AE000BF30F8022B00276FF3C8
:1022A0005F224A60E28C013AE284E28C72B10A68F1
:1022B000120635D5002FEFD017F8012BF1E700BF3C
:1022C00000273046E28C2168002AA1D10868400628
:1022D0001ED42DB3681C14D1086840062AD408689F
:1022E000400627D40868400624D4086840064FF00A
:1022F0000000F1D50DE000BF2068C168006840060D
:1023000018D4FEF77FFDA0EB0900A842F4D909E03C
:102310000020202184F8411001B0BDE8F08300BF07
:10232000FEF770FD0320202184F8411001B0BDE8C4
:10233000F08300BF0020202184F8411001B0BDE8E7
:10234000F0830000FEE700002DE9F04782B004466C
:1023500000689A460B9D0A9E0368914643F480628A
:10236000026002680F4642F48071016020464FF01F
:10237000011100223346009500F032F950B1206877
:102380000068C00544BF4FF400702064032002B011
:10239000BDE8F08740F202082068C0F2010807F0AB
:1023A000FE0707612046414632462B4600F0FEF903
:1023B00020B1012002B0BDE8F08700BF00200190ED
:1023C00020682A464169019180693146019001984F
:1023D000204600F09FFAB0B92068BAF1010F09D089
:1023E0004FEA19210161204631462A4600F092FA4F
:1023F00048B920685FFA89F10161204631462A46D2
:1024000000F088FA60B1206C0428D2D120680168FD
:1024100041F400710160012002B0BDE8F08700BF07
:10242000206800220168334641F480710160204633
:102430004FF00111009500F0D3F800289FD147F02C
:10244000010C27682046414632462B46C7F810C08B
:1024500002B0BDE8F04700F0A9B900002DE9F04353
:1024600083B0044600680F4601680A9D0B9E41F444
:10247000807199469046016020464FF0011100227C
:102480002B46009600F0ACF850B120680068C005FB
:1024900044BF4FF400702064032003B0BDE8F08314
:1024A000206807F0FE0101610221C0F2010120460F
:1024B0002A46334600F07AF920B1012003B0BDE886
:1024C000F08300BF002002902068324641690291EB
:1024D0008069294602900298204600F01BFA58B104
:1024E000206C0428E9D12068016841F40071016082
:1024F000012003B0BDE8F0832068B9F1010F0AD0D4
:102500004FEA1821016120462946324600F002FABE
:102510000028E5D120685FFA88F10161002003B04E
:10252000BDE8F08370B50368044653F8140F400704
:1025300011D40E46481C29D086BB00BF1868400540
:1025400027D4FEF75FFC236853F8140F400737D5F4
:1025500018684007F2D5002070BD00BF186840071A
:10256000F9D41868400514D418684007F3D41868E3
:1025700040050ED418684007EDD41868400508D40B
:10258000186840074FF0000048BF70BD186840054C
:10259000E4D56FF480601860042012E0154603E073
:1025A00053F8140F4007D6D418684005F1D4FEF74D
:1025B00029FC401B2368B042F2D958694007EFD488
:1025C000202000212022216384F83D2084F83E1041
:1025D000226C10432064012084F83C1070BD000080
:1025E0002DE9F041054600681E46144601F47F02BD
:1025F00001338FB242D0DDF81880B2F5803F40F051
:10260000878040693840C01BB0FA80F0400984429E
:1026100040F0C8804EB924E040693840C01BB0FA91
:1026200080F04009844240F0BD80FEF7EBFBA0EB58
:1026300008012868B142EFD941693940C91BB1FA94
:1026400081F149098C42E7D19BE000BF40693840E5
:10265000C01BB0FA80F0400984424FF0000040F007
:10266000A280FEF7CFFB286841693940C91BB1FA47
:1026700081F149098C42E9D183E000BFB2F5803F86
:1026800024D100BF41693940C91BB1FA81F1490920
:102690008C4240F0878041693940C91BB1FA81F111
:1026A00049098C4240F07E8041693940C91BB1FA2A
:1026B00081F149098C4275D141693940C91BB1FA90
:1026C00081F149098C42DDD06CE000BF816939405D
:1026D000C91BB1FA81F149098C4263D18169394042
:1026E000C91BB1FA81F149098C425BD1816939403A
:1026F000C91BB1FA81F149098C4253D18169394032
:10270000C91BB1FA81F149098C42DFD04AE000BF10
:1027100080693840C01BB0FA80F04009844241D142
:1027200046B923E080693840C01BB0FA80F0400908
:10273000844237D1FEF766FBA0EB08012868B1425E
:10274000F0D981693940C91BB1FA81F149098C423C
:10275000E8D116E080693840C01BB0FA80F040092B
:1027600084424FF0000018BFBDE8F081FEF74AFB3D
:10277000286881693940C91BB1FA81F149098C4245
:10278000E8D100202021286385F83D1085F83E001F
:10279000296C41F02001296485F83C000120BDE846
:1027A000F08100BF0020BDE8F0810000F0B581B0ED
:1027B000044600681D4643698FB203EA0701B94227
:1027C00002D1002001B0F0BD4169164601323CD073
:1027D000490512D47EB300BFFEF714FB411B2068ED
:1027E000B14203D941693940B9422BD141693940DD
:1027F000B942E6D041694905EED5016841F400715E
:1028000001606FF480614161042000212022216376
:1028100084F83D2084F83E10226C1043206484F834
:102820003C10012001B0F0BD41693940B942C8D027
:1028300041694905E1D4FEF7E5FA2068416939406C
:10284000B942F1D02020E0E741694905D5D441697A
:102850003940B942B5D041694905CED441693940C2
:10286000B942AED041694905C7D441693940B9423E
:10287000A7D041694905C0D441693940B942E3D183
:102880009FE7000070B504460068154650F8143FF5
:102890005A063DD40E4629B926E000BF50F8141F51
:1028A000490635D40168C90621D4FEF7ABFA411BAD
:1028B0002068B142F2D941694906EFD400202021B5
:1028C000206384F83D1084F83E00206C40F0200026
:1028D00018E000BFFEF796FA206850F8141F49066A
:1028E000ECD50168490613D40168C906F2D56FF02A
:1028F0001001016000202021206384F83D1084F83D
:102900003E00206C2064002084F83C00012070BD53
:10291000002070BD70B50368044653F8140F00061C
:1029200011D40E46481C29D086BB00BF186840054C
:1029300027D4FEF767FA236853F8140F000637D53B
:1029400018680006F2D5002070BD00BF18680006A8
:10295000F9D41868400514D418680006F3D4186830
:1029600040050ED418680006EDD41868400508D458
:10297000186800064FF0000048BF70BD1868400599
:10298000E4D56FF480601860042012E0154603E07F
:1029900053F8140F0006D6D418684005F1D4FEF79A
:1029A00031FA401B2368B042F2D958690006EFD4CF
:1029B000202000212022216384F83D2084F83E104D
:1029C000226C10432064012084F83C1070BD00008C
:1029D0002DE9F041144605280D463FD141F6004649
:1029E000C4F2010630464FF480710022FEF704FA6B
:1029F00030464FF400710022FEF7FEF930464FF4E6
:102A000080610022FEF7F8F930464FF400610022A1
:102A1000FEF7F2F92046FEF7E7F830464FF48071F2
:102A20000122FEF7E9F930464FF400710122FEF76A
:102A3000E3F930464FF480610122FEF7DDF93046BC
:102A40004FF400610122FEF7D7F92046FEF7CCF8DB
:102A50002806A5F10105C5D1BDE8F081002D08BF0C
:102A6000BDE8F08141F60048013843F2DA16C4F2BD
:102A70000108C7B2C0F6000605E000BF2046FEF719
:102A8000B3F8013DE8D0032F05D836F817104046BB
:102A90000022FEF7B1F92046FEF7A6F8032FEDD885
:102AA00036F8171040460122FEF7A6F9E6E70000C7
:102AB000FEE70000FEE700007047000070470000DE
:102AC000FEF7ECBD70470000FEE7000070B582B075
:102AD00040F22806C2F20006306898B10DF10705F1
:102AE0003068294601224FF0FF334FF0FF34FFF7E3
:102AF00047FA18B99DF807400D2CF1D0204602B0D6
:102B000070BD00BF4FF0FF34204602B070BD000022
:102B100010B582B0014640F22800C2F20000006801
:102B20004FF0FF34019148B101A901224FF0FF336A
:102B3000FFF73EFB0199002808BF0C46204602B073
:102B400010BD000090B0FEF7B7FD00240120CDE9D4
:102B50000B44CDE9094406900A904FF4E0104FF47D
:102B6000803102250F9006A8CDE90714CDE90D515B
:102B7000FEF73EFF20B1EFF3108072B6FEE700BF14
:102B80000F20CDE901054FF48060CDE9040401A8D0
:102B900002210394FEF726FE20B1EFF3108072B6F7
:102BA000FEE700BF002541F21800CDE90855CDE948
:102BB0000655C4F20200016841F6004441F080016C
:102BC00001600168C4F2010401F0800101910199E2
:102BD0000168002241F00801016001684FF470664D
:102BE00001F0080101910199016841F004010160BF
:102BF00000684FF4706100F00400019001982046D5
:102C0000FEF7FAF81120CDE907050220099006A980
:102C100020460696FDF7FCFF40F22C00A4F5444147
:102C2000C2F2000041F680224FF48043C0F2060257
:102C300080E82600C0E90353C0E90555C0E90755FF
:102C4000FEF7E6F820B1EFF3108072B6FEE700BFA2
:102C500040F2800004F5E051C2F200000C244FF471
:102C6000E1324FF480534FF4C06680E86E00C0E953
:102C70000545C561FFF7D2F820B1EFF3108072B6B9
:102C8000FEE700BF40F22C00C2F20000FDF7EEFEAE
:102C900040F28000C2F20000FDF79CFFFDF776FDD8
:102CA000FDF7ACFEFAE700000FB4054B10B503A921
:102CB000044A029800F018F810BC5DF814FB0000FC
:102CC000112B00080400002002E008C8121F08C1F0
:102CD000002AFAD170477047002001E001C1121F9D
:102CE000002AFBD1704700002DE9FF4F8DB00F4641
:102CF0000546002606E025280BD0DDE90F12904797
:102D00006D1C761C28780028F5D111B03046BDE83E
:102D1000F08F0024A246A1460122EC4900E00443C2
:102D200015F8013F203B02FA03F00842F7D128785A
:102D30002A2810D06FF02F022878A0F1300109293D
:102D400014D80AEB8A0102EB410144F0020400EBC3
:102D5000010A6D1CF0E701CF5FEA000A03D544F4D5
:102D60000054CAF1000A44F002046D1C28782E2891
:102D700017D115F8010F44F004042A280ED06FF083
:102D80002F022878A0F1300109290AD809EB89011E
:102D900002EB410100EB01096D1CF2E757F8049BBF
:102DA0006D1C28786C280FD006DC4C2817D06828BA
:102DB0000DD06A2814D104E0742810D07A280FD1DD
:102DC0000DE044F400140AE044F4801401E044F4FB
:102DD00040146978814202D104F580146D1C6D1C89
:102DE0002A786E2A1FD00CDC632A31D004DC002A3A
:102DF0008BD0582A11D1A3E0642A68D0692A0CD15B
:102E000065E0732A2ED004DC6F2A73D0702A04D1B7
:102E10009BE0752A6FD0782A6ED01046DDE90F123C
:102E20009047761C50E1C4F30250022806D00328D4
:102E300009D0042801CF09D0066045E101CFF11780
:102E4000C0E9006140E101CF06803DE106703BE151
:102E500017F8040B8DF8000000208DF80100EB46F8
:102E6000012003E057F804BB4FF0FF3061074FF03B
:102E7000000102D40DE008F10101884649450FDA4E
:102E80008045F8DB1BF808100029F4D108E008F1B0
:102E9000010188468142FADB1BF808100029F6D1AF
:102EA000DDE90F23AAEB08008146214600F036F940
:102EB000304400EB080604E0DDE90F121BF8010BBB
:102EC0009047B8F10108F7D221464846F7E00A21B9
:102ED000C4F302534FF0000B0891022B04D001CF32
:102EE000C117032B09D00AE0FF1D27F00707F7E8F9
:102EF000020108E032E01FE020E000B2C117042B1D
:102F000001D140B2C117031E71F1000307DA4FF07F
:102F1000000CD0EB0C006CEB01012D2302E023052B
:102F200004D52B238DF82430012303E0E30701D0DF
:102F30002023F7E7984658E00A2110E010210EE020
:102F400010204FF0000B08900CE010214FF0000B08
:102F500044F004044FF00809089103E008214FF001
:102F6000000B0891C4F30253022B04D001CF0021BF
:102F7000032B06D006E0FF1D27F00707F7E8020144
:102F800003E080B2042B00D1C0B24FF00008230749
:102F90002BD5702A07D0DDF820C08CF0100C5CEA2D
:102FA0000B0C05D00EE040238DF82430012308E0FF
:102FB00050EA010306D030238DF824308DF8252007
:102FC00002239846DDF820C08CF0080C5CEA0B0C5C
:102FD0000BD150EA010301D1630706D530238DF8E8
:102FE00024304FF00108A9F10109582A04D038A271
:102FF0000B9208AA0A920BE03AA2F9E75B46089AFC
:10300000FDF768F90B9B9B5C0A9A521E0A9213709B
:1030100050EA0102F2D10A98ADEB000000F1200B5A
:10302000600702D524F4803401E04FF00109D9454E
:1030300002DDA9EB0B0000E0002000EB0B01414496
:103040000890AAEB010AE00306D4DDE90F2321462C
:10305000504600F063F806444FF0000908E009A963
:1030600011F80900DDE90F12904709F10109761CFA
:10307000C145F4DBE0030CD5DDE90F2321465046C2
:1030800000F04CF8064404E0DDE90F1230209047D0
:10309000761C0899481E08900029F5DC08E00A987B
:1030A0000A990078491C0A91DDE90F129047761CB5
:1030B000BBF10001ABF1010BF1DC21465046DDE92B
:1030C0000F2300F019F806446D1C1BE609280100C7
:1030D000303132333435363738396162636465668E
:1030E0000000000030313233343536373839414250
:1030F00043444546000000002DE9F0410446002508
:103100001E461746880404D405E039462020B047FF
:103110006D1C641EF9D52846BDE8F0812DE9F0410B
:10312000044600251E469046C80301D5302700E01E
:103130002027880404D505E041463846B0476D1C79
:10314000641EF9D52846BDE8F081000010B504469C
:1031500001E0FFF7DDFC14F8010B04490028F8D169
:10316000BDE810400A20FFF7D3BC00000400002097
:10317000DDDDDDDDDCBBBBDDDDDDDDDDDDDDDDDDC4
:103180009888888888888888777777777788888804
:10319000855555566666666666666666666888889C
:1031A0008333333222222222222222222228888D95
:1031B00000000000000000000102030406070809E7
:1031C00000000000010203040102020304050607D7
:1031D00008090A0B0C0D0E0F10100001000200046C
:1031E0000008636F6E6669672E6C65645F69643A98
:1031F0002025640A00636F6E6669672E73746172BE
:10320000745F74696D653A2025640A00636F6E66A9
:1032100069672E64656C61795F6D733A2025640A75
:1032200000636F6E6669672E7265706561745F63B7
:103230006E743A2025640A003E3E2025730A00631E
:103240006F6E6669672E6D616769633A2030782515
:10325000780A00636F6E6669672E76657273696FB0
:103260006E3A20307825780A0073746570323A20FF
:10327000E8AEBEE7BDAEE997AAE781AFE6ACA1E64E
:1032800095B02C205B312C3235355D3E3E200073ED
:10329000746570333A20E8AEBEE7BDAEE997AAE7A1
:1032A00081AFE997B4E99A942CE58D95E4BD8D6DD5
:1032B000733E3E200073746570343A20E8AEBEE77A
:1032C000BDAEE5BC80E5A78BE697B6E997B42CE5E3
:1032D0008D95E4BD8D6D733E3E20005B215D20E841
:1032E000BE93E585A5E697A0E695882C20E9808920
:1032F000E9A1B9E58FAAE69C8931207C7C203221A6
:10330000005B215D20E8BE93E585A5E697A0E695E4
:10331000882C20E8AFB7E9878DE696B0E5B09DE848
:10332000AF9521003E3E2D2D2D2D2D2D2D2D2D2DFA
:103330002DE9858DE7BDAEE6B885E58D952D2D2D62
:103340002D2D2D2D2D2D2D2D2D2D2D2D3C3C0025C4
:10335000640000007833000800000020180000001E
:10336000C82C00089033000818000020B8040000A2
:10337000D82C000800000000000000000000000041
:1033800000000000010000001000000000127A00A0
:0400000508000131BD
:00000001FF
